S023000050726F675F6D696E6973756D6F5F62756C6C65745F78745F762E332E7372656331
S11300009AC30000B8C300000C94F30C0C94040DC4
S1130010B2C30000B0C30000AEC30000ACC3000014
S1130020AAC30000A8C300000C94B70DA4C3000029
S1130030A2C30000A0C300009EC300009CC3000034
S11300409AC3000098C3000096C3000094C3000044
S113005092C3000090C300008EC300008CC3000054
S11300608AC300000C94DC0D86C3000084C3000026
S113007082C3000080C300007EC300007CC3000074
S11300807AC3000078C3000076C3000074C3000084
S113009072C3000070C300006EC300006CC3000094
S11300A06AC3000068C3000066C300000C94DF0C40
S11300B00C94E90C60C300005EC300000C94370D7F
S11300C05AC3000058C3000056C3000054C30000C4
S11300D052C3000050C300004EC300004CC30000D4
S11300E04AC3000048C3000046C3000044C30000E4
S11300F042C3000040C300003EC300003CC30000F4
S11301000C94BD0C0C94CE0C0C94150D0C94260D73
S113011032C3000030C300002EC300002CC3000013
S11301202AC3000028C3000026C3000024C3000023
S113013022C3000020C300001EC300001CC3000033
S11301401AC3000018C3000016C3000014C3000043
S113015012C3000010C300000EC300000CC3000053
S11301600AC3000008C3000006C3000004C3000063
S113017002C3000000C30000FEC20000FCC2000075
S1130180FAC20000F8C20000F6C20000F4C2000087
S1130190F2C20000F0C20000EEC20000ECC2000097
S11301A0EAC20000E8C20000E6C20000E4C20000A7
S11301B0E2C20000E0C20000DEC20000DCC20000B7
S11301C0DAC20000D8C20000D6C20000D4C20000C7
S11301D0D2C20000D0C20000CEC20000CCC20000D7
S11301E0CAC20000C8C20000C6C20000C4C20000E7
S11301F0C2C20000C0C20000BEC200000B0E080E46
S1130200270E270E270E270E270E270E270E020E67
S1130210270E270E270E270E270EFF0D270E270E5B
S1130220050E270E270E270E270E270E270E270E44
S1130230270E270E270E270E0D0E1A0E210E000074
S11302400000000000005F0000000007000700003D
S1130250147F147F1400242A7F2A120023130864B5
S11302606200364955225000000003000000001CC3
S1130270224100000041221C000014083E08140022
S113028008083E080800005030000000080808086C
S113029008000060600000002010080402003E51C5
S11302A049453E0000427F400000426151494600FA
S11302B02141454B31001814127F10002745454554
S11302C039003C4A494930000371090503003649A5
S11302D049493600064949291E0000363600000007
S11302E000563600000008142241000014141414AF
S11302F01400004122140800020151090600324989
S113030079413E007E1111117E007F494949360032
S11303103E41414122007F4141413E007F494949DC
S113032041007F09090901003E4141497A007F08E3
S113033008087F0000417F4100002040413F010048
S11303407F08142241007F40404040007F020C029D
S11303507F007F0408107F003E4141413E007F0939
S1130360090906003E4151215E007F091929460012
S113037046494949310001017F0101003F404040A5
S11303803F001F2040201F003F4038403F006314BF
S113039008146300070870080700615149454300C9
S11303A0007F414100000204081020000041417F09
S11303B000000402010204004040404040000001EB
S11303C0020400002054545478007F484444380008
S11303D0384444442000384444487F00385454543A
S11303E01800087E0901020018A4A4A47C007F0858
S11303F00404780000487D4000000000847D000073
S11304007F102844000000417F4000007C047804F1
S113041078007C0804047800384444443800FC2400
S11304202424180018242428FC007C080404080050
S1130430485454542000043F444020003C40402091
S11304407C001C2040201C003C4030403C004428E0
S1130450102844001CA0A0A07C004464544C440018
S113046000083641000000007F000000004136080B
S113047000001008081008000000000000002054CC
S113048054D47800384446452000385454D41800D5
S113049000497F4400007C0806057800384446453E
S11304A038004854565520004464564D4400446472
S11304B0554C44007E1111917E003C424643240079
S11304C07F4949C941007F50484440007E040B10D5
S11304D07E003C4246433C004C5256532200426646
S11304E0534A46004262534A46000000000000009E
S11304F000000000000000000000000000000000F8
S113050000000000000000000000000000000000E7
S113051000000000000000000000000000000000D7
S113052000000000000000000000000000000000C7
S113053000000000000000000000000000000000B7
S113054000000000000000000000000000000000A7
S11305500000000000000000000000000000000097
S11305600000000000000000000000000000000087
S11305700000000000000000000000000000000077
S11305800000000000000000000000000000000067
S11305900000000000000000000000000000000057
S11305A00000000000000080E0FF09090F080808AF
S11305B008080808080808080808080808080808B7
S11305C0080808080808080808080808080808F8B7
S11305D00000000000000000404848484848C8881F
S11305E08888881810100000000000000000000037
S11305F00000000000000080E0F8FEFFFFFF00C0E4
S11306007098C8C8E8E8E8E8E8C8C888080808088E
S11306100808080888C8C8E8E8E8E8E8C8C88818E6
S113062030E000FF00002020202424242424644CF3
S11306304848D8909090312121210000000000000A
S1130640000000000000000060787E7F7F7F7F7FD5
S11306507F7F7FC15E7FFFFFFFE3E3E3FFFFFF7F59
S11306605E4040404040405E7FFFFFFFE3E3E3FF26
S1130670FFFF7F5E40C1FF7F40000004444444C448
S11306808484848888081810103121614040000057
S11306900000000000000000000080404040404096
S11306A04040404040404041434242424343434330
S11306B04342C202020282828282828282828283D4
S11306C0838383838282828283818080800000008E
S11306D0000000000000000001010181818103028B
S11306E002020000000000000000000000003F6063
S11306F040404040404040404040404040404040F6
S11307004040404040407F00000000000424242476
S113071024242424242424242424301010101010ED
S1130720101010101004040404040410101010100D
S113073010101000000011241FBECFEFCDBFDFE367
S1130740DEBF00E00CBF11E2A0E0B0E2E6E6F2E2B8
S113075000E00BBF02C007900D92A832B107D9F791
S113076021E2A8E2B1E201C01D92AB36B207E1F783
S113077065D60C94311144CCE0E0F2E081E0808352
S113078090E2928327E0248380A328E021A312A28D
S113079080A720E121A712A680AB28E121AB12AAF1
S11307A080AF91AF12AE0895823049F018F48130D1
S11307B001F139C0833081F0843041F134C0E0E08C
S11307C0F2E080A9806880AB86818823E9F3E0E0C9
S11307D0F2E0848995890895E0E0F2E080A58068DC
S11307E080A786818823E9F3E0E0F2E08289938997
S11307F00895E0E0F2E080A1806880A386818823E8
S1130800E9F3E0E0F2E0808991890895E0E0F2E024
S113081080AD806880AF86818823E9F3E0E0F2E070
S113082086899789089580E090E00895E0E8F6E0ED
S113083080EB818380E4828381E58093C00A0895FC
S113084090E1E0E8F6E09683882319F088E0858358
S113085004C088E0E0E8F6E08683E0ECFAE0638335
S113086082818823ECF780E1E0E8F6E0858308954F
S11308704F925F926F927F928F929F92AF92BF92AC
S1130880CF92DF92EF92FF920F931F93CF93DF9358
S11308904C01542E602E712C6114710451F1A12C61
S11308A0B12CC12CD12C6068462E022F10E0652D8E
S11308B06C0D606480E0C4DF642D80E0C1DF01154D
S11308C0110589F0C0E0D0E07401EA0CFB1CF701CB
S11308D0EC0FFD1F649181E0B3DF2196C017D107AF
S11308E0B0F3A00EB11E8FEFC81AD80AC614D704ED
S11308F0F0F2DF91CF911F910F91FF90EF90DF9075
S1130900CF90BF90AF909F908F907F906F905F90AB
S11309104F9008951F93CF93DF9360E480E090DFBE
S113092060E880E08DDFD0E014E56D2F606480E046
S113093087DF60E880E084DFC12F60E081E080DF52
S1130940C150D9F7DF5FD63081F760E480E078DF0B
S113095060E880E075DFDF91CF911F910895BF9229
S1130960CF92DF92EF92FF920F931F93CF93DF9377
S1130970CDB7DEB76297CDBFDEBF7C01162F82E113
S1130980EEE0F0E2DE01119601900D928A95E1F716
S1130990642F606480E054DF612F606880E050DF82
S11309A0F701408150E041155105D1F1B12C29C026
S11309B08F5F823131F0219130E024173507C1F780
S11309C02AC06A01CC0CDD1C4C0D5D1D440F551F63
S11309D08A0102581E4FCA018C579E4F6C01F801C0
S11309E0649181E02DDF0F5F1F4F0C151D05B9F7D2
S11309F0B394F701EB0DF11D408150E04115510511
S1130A0079F0898190E08417950721F0FE013296F0
S1130A1081E0D1CF80E0482F50E040585F4FD1CFE4
S1130A206296CDBFDEBFDF91CF911F910F91FF90F2
S1130A30EF90DF90CF90BF90089540E066E080E2B1
S1130A4090E28DDF41E066E08AE290E288DF42E0F6
S1130A5066E087E390E283DF43E066E083E490E2CC
S1130A607EDF44E066E08EE490E279DF45E066E014
S1130A7088E590E274CF089540E066E083E690E272
S1130A806EDF41E066E08FE690E269DF42E066E017
S1130A908CE790E264DF43E066E083E890E25FDFA6
S1130AA044E066E08CE890E25ADF45E066E085E9E0
S1130AB090E255CF0895CF93DF9380915C2180FF1E
S1130AC026C080915E218F5F80935E2180915E219C
S1130AD086301CF085E080935E211CDF80913221FA
S1130AE0813011F4AADF05C080913221823009F4EB
S1130AF0C3DF40915E2160E08CE990E230DF8AE060
S1130B0090E04AD380915C218E7F80935C21809118
S1130B105C2181FF25C080915E21815080935E21FC
S1130B2080915E21882314F410925E21F3DE80917B
S1130B303221813011F481DF05C08091322182306D
S1130B4009F49ADF40915E2160E08CE990E207DFCE
S1130B508AE090E021D380915C218D7F80935C2199
S1130B6080915C2182FF64C180913221813021F027
S1130B70823009F41FC157C180915E21823041F156
S1130B802CF4882361F08130B1F04DC1843009F434
S1130B90E4C00CF4DDC0853009F4FCC044C1BADE05
S1130BA06BDF40915E2160E08CE990E2D8DE82E068
S1130BB08093322138C190914221909580914221B5
S1130BC090FB80F9809342218AE090E0E5D22BC12A
S1130BD0A1DEC0E2D6E0AEC080915B2184FF14C0E8
S1130BE040E060E08EE990E2BADE80915B218F7E86
S1130BF080935B212FEF89E698E12150804090405B
S1130C00E1F700C0000005C040E060E083E091E24D
S1130C10A6DE80915B2185FF14C040E064E285EA92
S1130C2090E29DDE80915B218F7D80935B212FEF8D
S1130C3089E698E1215080409040E1F700C000002F
S1130C4005C040E064E283E091E289DE80915B21AB
S1130C5081FF14C041E060E08CEA90E280DE809184
S1130C605B218D7F80935B212FEF89E698E12150F2
S1130C7080409040E1F700C0000005C041E060E022
S1130C808CEF90E26CDE80915B2182FF14C042E025
S1130C9060E08AEB90E263DE80915B218B7F80933E
S1130CA05B212FEF89E698E1215080409040E1F7E5
S1130CB000C0000005C042E060E08CEF90E24FDE2F
S1130CC080915B2183FF14C043E060E087EC90E2F5
S1130CD046DE80915B21877F80935B212FEF89E63D
S1130CE098E1215080409040E1F700C0000005C029
S1130CF043E060E08CEF90E232DE80915B2180FF84
S1130D0014C043E060E085ED90E229DE80915B2130
S1130D108E7F80935B212FEF89E698E121508040FC
S1130D209040E1F700C0000005C043E060E08CEFB4
S1130D3090E215DE888583FD4FCF8AE090E02CD2C7
S1130D407CDE40915E2160E08CE990E208DE6BC0BD
S1130D50F0D08AE090E020D266C0DCDD84E024DDBF
S1130D609F938F9383EE90E29F938F9383E391E21B
S1130D709F938F93C0D740E066E083E391E2EFDD79
S1130D808AE090E009D20F900F900F900F900F908F
S1130D900F9049C08AE090E0FFD182E319D12FEF90
S1130DA089E698E1215080409040E1F700C00000BE
S1130DB0E9D039C080915E21813099F01CF48823F8
S1130DC031F031C08230B9F08530F9F02CC0809117
S1130DD04221817F8260809342218AE090E0DCD1CD
S1130DE022C080914221817F8460809342218AE0E5
S1130DF090E0D2D118C080914221817F8660809397
S1130E0042218AE090E0C8D10EC081E08093322173
S1130E108AE090E0C1D17EDD10DE40915E2160E089
S1130E208CE990E29CDD80915C218B7F80935C2136
S1130E3080915C2183FF03C0877F80935C21DF91D5
S1130E40CF9108950F9384E0E0E8F6E086832FEFD6
S1130E5085EA9EE0215080409040E1F700C0000008
S1130E6084E085832FEF85EA9EE021508040904006
S1130E70E1F700C0000080E1858361E280E0E0DC0E
S1130E8063E180E0DDDC66E080E0DADC66EC80E0F3
S1130E90D7DC60E280E0D4DC6CE080E0D1DC06E00A
S1130EA024E540E060E08EE395E0E2DC40E060E0D1
S1130EB08BEE90E254DD2FEF83E294EF21508040DB
S1130EC09040E1F700C0000040E060E08AEF90E26B
S1130ED046DD40E060E08AE091E241DD2FEF83E20D
S1130EE094EF215080409040E1F700C0000040E0C2
S1130EF060E086E191E233DD2FEF83E294EF21504D
S1130F0080409040E1F700C0000004DD96DD40E041
S1130F1060E08CE990E223DD80915C21887F877F0B
S1130F2080935C2110925E2181E0809332210F91A5
S1130F300895E0EAF6E082E0878394E0978398E0FE
S1130F40978390E1978390E2978390E4978390E866
S1130F509783E0E4F6E087830895E0E0F9E036E182
S1130F60318384E690E086A397A310A611A624E01B
S1130F702083E0E0F8E0318386A397A310A611A6AE
S1130F8020830895E0E2F6E080E4868380E88683A7
S1130F9080E1868380E28683E0E0F8E010A611A673
S1130FA0E0E0F9E010A611A60895E0E2F6E080E49E
S1130FB0858380E8858380E1858380E28583E0E022
S1130FC0F8E010A611A6E0E0F9E010A611A6089535
S1130FD0E0E2F6E090E4968390E8958390E19583CF
S1130FE090E2968390E0E0E0F8E080A791A7E0E04B
S1130FF0F9E080A791A70895E0E2F6E090E49583F4
S113100090E8968390E1968390E2958390E0E0E007
S1131010F8E080A791A7E0E0F9E080A791A7089500
S1131020E0E2F6E090E4958390E8968390E195837E
S113103090E2968390E0E0E0F8E080A791A7E0E0FA
S1131040F9E080A791A70895E0E2F6E090E49683A2
S113105090E8958390E1968390E2958390E0E0E0B8
S1131060F8E080A791A7E0E0F9E080A791A70895B0
S1131070813019F48CE3D4DF04C0823011F48CE3A2
S1131080E3DF2FEF8BED95E0215080409040E1F7B6
S113109000C000008ACF0895813019F48CE3C0DFCA
S11310A004C0823011F48CE3CFDF2FEF8DEB9AE094
S11310B0215080409040E1F700C0000076CF0895B1
S11310C0813019F48CE3ACDF04C0823011F48CE37A
S11310D0BBDF2FEF8DE892E1215080409040E1F793
S11310E000C0000062CF089598ED94BF93E0E0E45F
S11310F0F0E09183E0E5F0E09BEC928398E090834C
S1131100918193FFFDCF98ED94BF93E090934000BD
S1131110E0E5F0E090819F7E9083806C858380E1A0
S11311208083818184FFFDCF88ED84BF94E0909318
S1131130400084BF85E0E0E5F0E083830895E0E0CB
S1131140FBE081E1818387E0808316828FE090E079
S113115080A791A70895E0E0FAE0118287E08083F8
S113116081E086838DE790E086A397A30895E0E06D
S1131170F4E00084F185E02D209143213091442155
S11311804091452150914621A0E6BAEE9BD56E0FC1
S11311907F1F811D911D089580935F21909360218D
S11311A0E0E0FBE08181806181830895789487E0A9
S11311B0E0EAF0E08283089585E0E0E4F0E08383F0
S11311C081E080930004E0E0F4E0818180FDFDCFC4
S11311D082E0E0E0F4E08283818180FDFDCF80E65F
S11311E09AEEE0E0F4E082879387818180FDFDCF71
S11311F0E0E0F4E0108611860895E0E0F6E091E086
S1131200928382E0828364E0628358E0528370E1D7
S1131210728340E2428330E43283968B3287858B3B
S11312204387AAE0A18720E82283E0E2F6E09283E4
S1131230828362835283B8E1B08BB18BB28BB38B60
S11312407183418331832183E0E4F6E091838183D8
S1131250628351833283968B32872283978B2387D1
S1131260A187E0E6F6E091833283868B328722837E
S1131270878B2387A187E0E8F6E09283868B9287A9
S11312808283818B8387A1876183518371834183A7
S11312902183E0EAF6E09183818361835183718342
S11312A0418331832183089570E0FB01E85DFE4DA5
S11312B09081990F811105C0FB01E85DFE4D90837B
S11312C005C0FB01E85DFE4D91609083FB01E85D84
S11312D0FE4D80818F3731F08E3F31F0882331F01D
S11312E081E0089580E0089583E0089582E0089500
S11312F00F931F93CF93DF9380915B218F7D809316
S11313005B2180915B218F7E80935B2182E390E05F
S113131043DF80E55DDE2BDF609347217093482136
S11313208093492190934A21C7E4D1E220DF0881C8
S113133019812A813B81DC01CB01801B910BA20B1B
S1131340B30B80319742A105B10540F480915B2134
S113135084FD04C080915B2185FFE8CF8FEF97EA7D
S113136021E6815090402040E1F700C000001DDEDE
S1131370809142218E7F80934221DF91CF911F91F2
S11313800F91089580915B218F7D80935B218091E3
S11313905B218F7E80935B2180915B218E7F809384
S11313A05B2180915B218D7F80935B2180915B2108
S11313B08B7F80935B2180915B21877F80935B216E
S11313C008952FEF87EA91E6215080409040E1F79D
S11313D000C0000082E390E0DFDE2FEF87EA91E6B1
S11313E0215080409040E1F700C0000082E390E08B
S11313F0D3DE2FEF87EA91E6215080409040E1F759
S113140000C0000082E390E0C7DE2FEF87EA91E698
S1131410215080409040E1F700C0000082E390E05A
S1131420BBDE2FEF87EA91E6215080409040E1F740
S113143000C0000084E690E0AFCE089588E054DE5A
S1131440DCDE18D499D9F2D988DD85DE78DEB4DE05
S1131450ADDE88EC90E0A0DEF5DC80914221817F56
S113146084608093422180915B218E7F80935B21F5
S1131470809142218061809342210F2EF3E5AF2EAB
S1131480F1E2BF2EF02D0F2EFFE48F2EF1E29F2EFE
S1131490F02DCBE4D1E20F2EF0E44F2EF6E05F2ED8
S11314A0F02D0F2EF7E4CF2EF1E2DF2EF02D0F2ECC
S11314B0612CF6E07F2EF02D0F2EF7E5EF2EF1E2F2
S11314C0FF2EF02DF8DA8091422180FF4DC28091E9
S11314D04221869587708230A9F78091422184FF4A
S11314E04DC06FDF8EE1B0DD2FEF81EE94E021502F
S11314F080409040E1F700C0000039DE68837983C2
S11315008A839B8315C080915B2181FD04C08091F7
S11315105B2180FF0DC088E25BDD80915B218B7FC6
S113152080935B2180915B21877F80935B2118C02E
S11315301EDE088119812A813B81DC01CB01801BDD
S1131540910BA20BB30B8A389240A105B10540F46C
S113155080915B2184FD04C080915B2185FFD3CF02
S113156080915B2181FD04C080915B2180FF1DDDA2
S1131570809142218F7E8093422102C088E228DD3F
S113158080915B2184FF4CC080915B2185FF48C022
S1131590EEDDF7010081118122813381DC01CB0171
S11315A0801B910BA20BB30B8B3F9105A105B105D9
S11315B0B8F1FBDCFFEF23EF81E0F15020408040E5
S11315C0E1F700C0000010E0812F16DDEFE3FFE13A
S11315D03197F1F700C000001F5F1436A9F78AE5C0
S11315E00BDDFFEF2BED85E0F15020408040E1F76B
S11315F000C00000DADC82E063DD80915B218F7D36
S113160080935B2180915B218F7E80935B21AFDD92
S1131610F70160837183828393838AE090E0BCDD69
S113162080915B2185FF55C0A2DDF7010081118106
S113163022813381DC01CB01801B910BA20BB30B04
S11316408B3F9105A105B10508F443C0AEDCFFEF63
S113165023EF81E0F15020408040E1F700C000001A
S113166010E0812FC9DCEFE3FFE13197F1F700C00F
S113167000001F5F1436A9F78AE5BEDCFFEF2BEDEF
S113168085E0F15020408040E1F700C000008DDC8F
S113169081E002DD82E3C4DC9FEFEBEDF5E09150E5
S11316A0E040F040E1F700C000007FDC80915B2166
S11316B08F7D80935B2180915B218F7E80935B2162
S11316C056DDF70160837183828393838AE090E01F
S11316D063DD80915B2184FF55C049DDF701008102
S11316E0118122813381DC01CB01801B910BA20B80
S11316F0B30B8B3F9105A105B10508F443C055DC3C
S1131700FFEF23EF81E0F15020408040E1F700C07B
S1131710000010E0812F70DCEFE3FFE13197F1F777
S113172000C000001F5F1436A9F78AE565DCFFEFEF
S11317302BED85E0F15020408040E1F700C000002F
S113174034DC82E0A9DC82E37FDC9FEFEBEDF5E0A3
S11317509150E040F040E1F700C0000026DC8091A9
S11317605B218F7D80935B2180915B218F7E8093B1
S11317705B21FDDCF701608371838283938382E3C1
S113178090E00ADD80915B2180FF06C0B1DD80918D
S11317905B218E7F80935B2180915B2181FF9EC0C2
S11317A004DCE5DC688379838A839B83E0DC08813D
S11317B019812A813B81DC01CB01801B910BA20B97
S11317C0B30BC297A105B10520F4F201808586FF11
S11317D0EDCF88E2FDDBCBDC688379838A839B834E
S11317E063C080915B2180FF4FC088E2F1DBBFDCE6
S11317F0F601608371838283938332C0F301808511
S113180085FF06C080915B218E7F80935B213AC067
S113181080915B2182FF06C080915B218E7F809343
S11318205B2130C080915B2183FF06C080915B21E6
S11318308E7F80935B2126C080915B2184FF06C04C
S113184080915B218E7F80935B211CC080915B2102
S113185085FF06C080915B218E7F80935B2112C03F
S113186086DCF6010081118122813381DC01CB0108
S1131870801B910BA20BB30B8E359140A105B105D2
S113188008F4BCCF92DB24C080915B2182FD20C090
S113189080915B2183FD1CC080915B2184FD18C075
S11318A080915B2185FD14C062DC088119812A8145
S11318B03B81DC01CB01801B910BA20BB30B8A385B
S11318C09240A105B10520F4F201808586FF89CFFD
S11318D06CDB80915B218D7F80935B2180915B2108
S11318E082FF1EC044DCF401008111812281338116
S11318F0DC01CB01801B910BA20BB30B8536910548
S1131900A105B10568F081E0B3DB80915B218B7F99
S113191080935B212CDCF401608371838283938345
S113192080915B2183FFCECD22DCF5010081118102
S113193022813381DC01CB01801B910BA20BB30B01
S113194085369105A105B10508F4BCCD82E090DB94
S113195080915B21877F80935B2109DCF5016083A3
S1131960718382839383AECD0DDD809142218061AA
S1131970809342211ADB06DBA5CD1F920F920FB68E
S11319800F9211248F9380915B21806280935B215D
S11319908F910F900FBE0F901F9018951F920F926A
S11319A00FB60F9211248F9380915B2180618093F5
S11319B05B218F910F900FBE0F901F9018951F926F
S11319C00F920FB60F9211240F900FBE0F901F901D
S11319D018951F920F920FB60F9211240F900FBEFD
S11319E00F901F9018951F920F920FB60F9211240B
S11319F08F9380915B21826080935B218F910F9004
S1131A000FBE0F901F9018951F920F920FB60F9252
S1131A1011248F9380915B21846080935B218F914B
S1131A200F900FBE0F901F9018951F920F920FB634
S1131A300F9211248F9380915B21886080935B21A6
S1131A408F910F900FBE0F901F9018951F920F92B9
S1131A500FB60F9211248F9380915B218160809344
S1131A605B218F910F900FBE0F901F9018951F92BE
S1131A700F920FB60F9211240BB60F922F933F9330
S1131A804F935F936F937F938F939F93AF93BF9382
S1131A90EF93FF93E0E2F6E08085809560E081704B
S1131AA003DC811105C080915C21816080935C21FD
S1131AB0E0E2F6E080858695817061E091E0892717
S1131AC0F3DB811105C080915C21826080935C21ED
S1131AD0E0E2F6E0808582FB882780F962E091E00D
S1131AE08927E2DB811105C080915C2184608093A9
S1131AF05C21E0E2F6E0808583FB882780F963E0DF
S1131B0091E08927D1DB811105C080915C21886037
S1131B1080935C2180915F2190916021892B29F42D
S1131B20E0E0FBE081818F7E818380915F21909151
S1131B306021892B49F080915F2190916021019768
S1131B4080935F2190936021FF91EF91BF91AF91BA
S1131B509F918F917F916F915F914F913F912F91C1
S1131B600F900BBE0F900FBE0F901F9018951F92F1
S1131B700F920FB60F9211248F939F93AF93BF933D
S1131B808091432190914421A0914521B091462117
S1131B900196A11DB11D8093432190934421A093EC
S1131BA04521B0934621BF91AF919F918F910F90A2
S1131BB00FBE0F901F9018951F920F920FB60F92A1
S1131BC011240BB60F922F933F934F935F936F9310
S1131BD07F938F939F93AF93BF93EF93FF938091E2
S1131BE0A00880935D2180915D2190E0FC01E35485
S1131BF0F109E132F10558F5E250FF4F5DC082E38F
S1131C0023DA25C082E30CDA22C084E6E1D91FC0BE
S1131C1082E3F2D91CC0B6D91AC082E390E0BCDAE0
S1131C209091422190958091422190FB80F980937C
S1131C3042210DC080914221817F846080934221A2
S1131C4006C080914221817F826080934221FF916E
S1131C50EF91BF91AF919F918F917F916F915F9120
S1131C604F913F912F910F900BBE0F900FBE0F908D
S1131C701F901895E0EAF8E017828FEC868380E3E2
S1131C80838383E0858388E1848388E0E0E4F6E06D
S1131C90818380E090E28093672190936821089586
S1131CA0FB01918195FFFDCF8083089560EA78E080
S1131CB0F7DF80E090E00895EE0FFF1F0590F491A8
S1131CC0E02D199409D0A59F900DB49F900DA49F69
S1131CD0800D911D11240895A29FB001B39FC001EE
S1131CE0A39F700D811D1124911DB29F700D811D44
S1131CF01124911D08950F931F93CF93DF93CDB7B4
S1131D00DEB72E97CDBFDEBF0E891F8986E08C8398
S1131D1009831A838FEF9FE78D839E83AE01465E0E
S1131D205F4F688D798DCE0101960DD0EF81F885D6
S1131D30E00FF11F10822E96CDBFDEBFDF91CF9151
S1131D401F910F9108952F923F924F925F926F923D
S1131D507F928F929F92AF92BF92CF92DF92EF9237
S1131D60FF920F931F93CF93DF93CDB7DEB72C97DA
S1131D70CDBFDEBF7C016B018A01FC011682178294
S1131D80838181FFB0C1CE0101964C01F70193819B
S1131D90F60193FD859193FF81916F01882309F4E6
S1131DA09EC1853239F493FD859193FF81916F0132
S1131DB0853221F4B70190E0C4D1E8CF512C312C05
S1131DC020E02032A0F48B3269F030F4803259F0F4
S1131DD0833269F420612CC08D3239F0803339F4B8
S1131DE0216026C02260246023C0286021C027FD12
S1131DF027C030ED380F3A3078F426FF06C0FAE0F9
S1131E005F9E300D1124532E13C08AE0389E300D8E
S1131E101124332E20620CC08E3221F426FD5FC1C2
S1131E20206406C08C3611F4206802C0883641F460
S1131E30F60193FD859193FF81916F018111C1CFCB
S1131E40982F9F7D9554933028F40C5F1F4FFFE328
S1131E50F9830DC0833631F0833771F0833509F08F
S1131E6057C021C0F801808189830E5F1F4F44242D
S1131E704394512C540114C03801F2E06F0E711CCC
S1131E80F801A080B18026FF03C0652D70E002C078
S1131E906FEF7FEFC5012C8749D12C0183012C857D
S1131EA02F77222E16C03801F2E06F0E711CF80154
S1131EB0A080B18026FF03C0652D70E002C06FEFE3
S1131EC07FEFC5012C8727D12C012C852068222E79
S1131ED0830123FC19C0832D90E048165906A0F411
S1131EE0B70180E290E02DD13A94F5CFF50127FCBB
S1131EF0859127FE81915F01B70190E022D13110D5
S1131F003A94F1E04F1A51084114510479F7DEC0B4
S1131F10843611F0893631F5F80127FF07C0608156
S1131F207181828193810C5F1F4F08C06081718130
S1131F30882777FD8095982F0E5F1F4F2F76B22E3E
S1131F4097FF09C090958095709561957F4F8F4F4D
S1131F509F4F2068B22E2AE030E0A40124D1A82E9D
S1131F60A81843C0853729F42F7EB22E2AE030E02A
S1131F7025C0F22FF97FBF2E8F36C1F018F48835B3
S1131F8079F0ADC0803719F0883721F0A8C02F2F21
S1131F902061B22EB4FE0DC08B2D8460B82E09C012
S1131FA024FF0AC09F2F9660B92E06C028E030E0B7
S1131FB005C020E130E002C020E132E0F801B7FEC4
S1131FC007C060817181828193810C5F1F4F06C0BD
S1131FD06081718180E090E00E5F1F4FA401E3D027
S1131FE0A82EA818FB2DFF77BF2EB6FE0BC02B2DF5
S1131FF02E7FA51450F4B4FE0AC0B2FC08C02B2DE9
S11320002E7E05C07A2C2B2D03C07A2C01C0752C92
S113201024FF0DC0FE01EA0DF11D8081803311F40F
S1132020297E09C022FF06C07394739404C0822FD2
S1132030867809F0739423FD12C020FF06C05A2C41
S1132040731418F4530C5718732C731460F4B701F9
S113205080E290E02C8775D073942C85F6CF7314AE
S113206010F4371801C0312C24FF11C0B70180E3EC
S113207090E02C8766D02C8522FF16C021FF03C078
S113208088E590E002C088E790E0B7010CC0822F99
S1132090867851F021FD02C080E201C08BE227FD69
S11320A08DE2B70190E04DD0A51430F4B70180E380
S11320B090E047D05A94F8CFAA94F401EA0DF11DA8
S11320C08081B70190E03DD0A110F6CF332009F410
S11320D05DCEB70180E290E034D03A94F7CFF701B7
S11320E08681978102C08FEF9FEF2C96CDBFDEBF14
S11320F0DF91CF911F910F91FF90EF90DF90CF90E0
S1132100BF90AF909F908F907F906F905F904F9013
S11321103F902F900895FC0105906150704001108C
S1132120D8F7809590958E0F9F1F0895FC016150FC
S1132130704001900110D8F7809590958E0F9F1FE5
S113214008950F931F93CF93DF93182F092FEB015B
S11321508B8181FD03C08FEF9FEF20C082FF10C0F1
S11321604E815F812C813D81421753077CF4E881C5
S1132170F9819F012F5F3F4F28833983108306C065
S1132180E885F985812F1995892B29F72E813F81BF
S11321902F5F3F4F2E833F83812F902FDF91CF916D
S11321A01F910F910895FA01AA27283051F1203187
S11321B081F1E8946F936E7F6E5F7F4F8F4F9F4FD7
S11321C0AF4FB1E03ED0B4E03CD0670F781F891F19
S11321D09A1FA11D680F791F8A1F911DA11D6A0FE7
S11321E0711D811D911DA11D20D009F468943F919A
S11321F02AE0269F11243019305D3193DEF6CF0199
S11322000895462F4770405D4193B3E00FD0C9F75E
S1132210F6CF462F4F70405D4A3318F0495D31FDCB
S11322204052419302D0A9F7EACFB4E0A69597951E
S1132230879577956795BA95C9F7009761057105F4
S113224008959B01AC010A2E06945795479537953E
S11322502795BA95C9F7620F731F841F951FA01D98
S10922600895F894FFCF7D
S11322660000000200000000560E00000000B9E65F
S1132276EAB3F1F39C9FBFA5C6CAA3D1D38C8FAF93
S1132286312E4348204D4F444500322E535441527B
S1132296542053544F5000332E5445535420534521
S11322A64E5300342E544F47204C45445300352E8C
S11322B6564F4C5441474500362E54455354204DF1
S11322C64F5400312E532E544F524E41444F003238
S11322D62E532E5354414E4441524400332E532E12
S11322E64C4600342E2D2D2D2D2D2D00352E2D2D25
S11322F62D2D2D2D00362E2D2D2D2D3E3E004C2E12
S11323064C494E4500522E4C494E450053484152C5
S11323165020412046524F4E5400534841525020BB
S113232641204C45465400534841525020412052C6
S11323364947485400534841525020442046524F7E
S11323464E5400566F6C743A25640042554C4C4505
S1132356542058542076302E390020202020202066
S113236620202020202020202000444553474E458D
S1132376442042593A00414E44525A454A204C415F
S10B2386435A4557534B49002B
S9030000FC
